:020000040801F1
:1010000080B584B000AF78600D4B59F80330DB68D1
:10101000FB600C4B7B441846F2F73AFB7B681846A2
:10102000F2F7D6FA084B7B441846F2F731FBF86822
:10103000F2F7CEFAF2F74CFB07F11007BD4680BD80
:1010400000000000980000008E000000000000007A
:1010500080B584B000AF78604FF0FF33FB60104B79
:101060007B441846F2F714FBF2F732FB4FF40063AF
:10107000C4F201034FF40062C4F20102D26882F0AC
:101080000802DA60FB6803F1FF33FB60FB68184677
:10109000FFF7B6FF4FF47A70EFF70AFFE6E700BFFD
:1010A00058000000000000000000000000000000E8
:1010B000415050333A200000202D200048656C6CD0
:0C10C0006F2066726F6D204150503300AD
:0410CC00F00C002004
:0C10D00000000000000000000000000014
:00000001FF
