:020000040801F1
:1008900080B584B000AF786041F66413C2F2000303
:1008A000DB68FB607B681846FBF78EF844F6EC705B
:1008B000C2F20000FBF76CF807F11007BD4680BDDF
:1008C00080B584B000AF78604FF40063C4F20103D8
:1008D0004FF40062C4F20102D26882F00402DA60CE
:1008E000FB6803F1FF33FB6044F6F873C2F20003C8
:1008F0001B6803F1010244F6F873C2F200031A60A8
:1009000044F6F873C2F200031B681846FFF7C0FFF5
:0C0910004FF47A70F0F774FDD6E700BFDA
:0C092000CCCCCCCC4142433A290D0A005B
:040000050801089056
:00000001FF
