:020000040800F2
:10000000000400200D0100080102000801020008A0
:1000100001020008010200080102000801020008B4
:100020000102000801020008010200085102000854
:100030000102000801020008010200082102000874
:100040000102000899670008010200080102000887
:10005000010200080102000871640008AD64000894
:10006000E96400082565000861650008215800085A
:1000700081580008E558000849590008AD590008A2
:10008000115A0008755A0008010200083169000879
:10009000E1690008F96A0008116B00089D65000815
:1000A0000102000801020008010200080102000824
:1000B0009D7D00083D76000881790008C18A00080E
:1000C000E18A00080102000801020008010200089C
:1000D0000102000811990008010200083199000886
:0C00E00089660008010200081168000891
:1000F00080B400AFBD4680BC704700BF80B400AF85
:10010000BD4680BC704700BFFEE700BF72B640F638
:100110000004C2F2000484F309884FF0020484F35F
:100120001488BFF36F8F40F20004C2F2000440F263
:100130000045C2F2000504E04FF05533236004F19E
:100140000404AC42F8D340F20044C2F2000440F68A
:100150000005C2F2000504E04FF05533236004F1BE
:100160000404AC42F8D309F0B3FC40F20045C0F6F9
:10017000010540F60004C2F2000405E02B6823608C
:1001800004F1040405F1040540F68443C2F20003BF
:100190009C42F3D340F68844C2F2000441F6DC7579
:1001A000C2F2000504E04FF00003236004F10404F0
:1001B000AC42F8D3FFF7A2FF40F2EC04C0F6000413
:1001C00003E02368984704F1040440F2EC03C0F60E
:1001D00000039C42F5D30BF07BFB40F2EC04C0F62D
:1001E000000403E02368984704F1040440F2EC03A0
:1001F000C0F600039C42F5D3FFF786FF0000000025
:10020000FEE700BF0000000000000000000000004A
:1002100080B400AF72B6FEE70000000000000000EE
:1002200080B500AF00F00CFB4FF0200383F3118882
:1002300000F0CAFA00F0E0F900F0E4FA4FF0000331
:1002400083F3118800F028FB00F03EF880BD00BF6A
:1002500090B482B000AFEFF309847C607B6803F157
:1002600020037B607B6883F309884FF0000383F3EE
:10027000118807F10807BD4690BC704780B500AFF4
:100280004FF46D43CEF200034FF000029A604FF43A
:100290006D43CEF200034FF44072C0F2FA52DA60BE
:1002A0004FF007004FF0100100F008F94FF00A007E
:1002B0004FF4007100F002F94FF00B004FF0800195
:1002C00000F0FCF880BD00BF90B482B000AF4FF0EA
:1002D000200383F311884FF46D43CEF200035B6873
:1002E00003F40063002B29D0EFF309847C607B6862
:1002F000A3F120037B607B6883F309887B684FF060
:100300008072DA6141F67413C2F200031B689A68C6
:1003100041F67413C2F200039B699B689A4206D9A6
:100320007A6840F25133C0F6000393610AE07A68BC
:1003300040F25C33C0F60003936103E04FF000032A
:1003400083F3118807F10807BD4690BC704700BFD2
:1003500000F0FEF900F0AAFE00F018FA00DF00BF7E
:1003600003460A462DE9F04FC2F80CD0D3F80CD062
:10037000BDE8F08F80B500AF00F008FA4FF0000341
:1003800083F311882846A04701F0A0F880BD00BF84
:1003900090B484B000AF786039607B6803F00303E9
:1003A0004FEAC303FB604FF46143CEF200037A6867
:1003B0004FEA92004FF46142CEF2000279684FEAB0
:1003C000910101F1C00152F821201146FA684FF065
:1003D000FF0404FA02F26FEA02021140FA683C6874
:1003E00004FA02F2114300F1C00243F822104FF464
:1003F0006143CEF200037A684FEA5212796801F045
:100400001F014FF0010000FA01F102F1600243F810
:1004100022104FF46143CEF200037A684FEA521281
:10042000796801F01F014FF0010000FA01F143F873
:10043000221007F11007BD4690BC704790B484B0FD
:1004400000AF78607B6803F003034FEAC303FB60EF
:100450004FF46143CEF200037A684FEA5212796892
:1004600001F01F014FF0010000FA01F102F120023A
:1004700043F822104FF46143CEF200037A684FEA4A
:1004800092004FF46142CEF2000279684FEA910186
:1004900001F1C00152F821201146FA684FF0FF0423
:1004A00004FA02F26FEA0202114000F1C00243F8BE
:1004B000221007F11007BD4690BC704790B484B07D
:1004C00000AF786039607B6803F003034FEAC30331
:1004D000FB604FF46D43CEF200037A684FEA92005E
:1004E0004FF46D42CEF2000279684FEA910101F1BA
:1004F000060152F821201146FA684FF0FF0404FA71
:1005000002F26FEA02021140FA683C6804FA02F251
:10051000114300F1060243F8221007F11007BD460F
:1005200090BC7047000000000000000000000000C8
:1005300080B483B000AF786041F67413C2F2000358
:100540009A694EF20073C0F600039361FEE700BFA4
:1005500080B582B002AFFFF791FE00F08DFB00F096
:100560006FFA02F0DDFC02F0FBFD00F0F1F940F65D
:100570008840C2F200004FF0400100F0C5FD024685
:1005800041F67413C2F200039A6141F67413C2F289
:1005900000039B694FF0010283F8202041F6741399
:1005A000C2F200039A6940F20043C2F20003D36131
:1005B00000F0B6F84FF0000383F3118862B641F6FD
:1005C0007413C2F200039A694EF6B003C0F600033A
:1005D000936140F23153C0F600034FF000020092E5
:1005E00041F2A040C2F200004FF0B0014FF0010212
:1005F00000F036FEBD4680BD80B582B000AF00F091
:1006000077F941F67413C2F200039B695A6A02F14A
:1006100001025A6241F66413C2F20003DB6803F17F
:10062000010241F66413C2F20003DA6041F664137A
:10063000C2F200031A6841F66413C2F200039A4240
:1006400039D041F66413C2F200031B689A6802F1C4
:10065000FF329A6025E07B68DB683B607B684FF087
:100660000002DA607B681A6841F66413C2F2000384
:1006700053607B681A6841F66413C2F200031A6083
:1006800000F0C0F84FF0000383F311887B681A690B
:100690003B68104698474FF0200383F3118800F021
:1006A00093F841F66413C2F200031B687B607B6819
:1006B0009B68002BCFD007F10807BD4680BD00BF67
:1006C00080B500AF41F65C13C2F200031B68002B3B
:1006D00006D141F66013C2F200031B68002B05D05F
:1006E0004EF21070C0F6000000F094F980BD00BF1B
:1006F00080B500AF41F65C13C2F200031B68002B0B
:1007000006D141F66013C2F200031B68002B05D02E
:100710004EF21870C0F6000000F07CF980BD00BFFA
:1007200080B500AF41F65C13C2F200031B68002BDA
:1007300006D141F66013C2F200031B68002B05D0FE
:100740004EF22070C0F6000000F064F980BD00BFDA
:1007500080B500AF41F65C13C2F200031B68002BAA
:1007600006D141F66013C2F200031B68002B05D0CE
:100770004EF22870C0F6000000F04CF941F660130C
:10078000C2F200034FF001021A6080BD80B500AFD5
:1007900041F65C13C2F200031B68002B06D141F640
:1007A0006013C2F200031B68002B05DC4EF23070B0
:1007B000C0F6000000F02EF941F66013C2F200030B
:1007C0004FF000021A6080BD80B500AF41F65C13A7
:1007D000C2F200031B68002B06DD41F66013C2F273
:1007E00000031B68002B05D04EF23870C0F60000E5
:1007F00000F010F941F66013C2F200034FF001025D
:100800001A6080BD80B500AF41F65C13C2F20003F0
:100810001B68002B06DD41F66013C2F200031B6863
:10082000002B05DC4EF24070C0F6000000F0F2F83C
:1008300041F66013C2F200034FF000021A6080BD5F
:1008400080B500AF4FF0200383F3118841F65C13AD
:10085000C2F200031B68002B06DB41F66013C2F2F4
:1008600000031B68002B05D04EF24870C0F6000054
:1008700000F0D0F841F65C13C2F200031B6803F1EC
:10088000010241F65C13C2F200031A604FF000034C
:1008900083F3118880BD00BF80B500AF4FF0200307
:1008A00083F3118841F65C13C2F200031B68002B2E
:1008B00006DD41F66013C2F200031B68002B05D071
:1008C0004EF25070C0F6000000F0A4F841F65C1340
:1008D000C2F200031B6803F1FF3241F65C13C2F25F
:1008E00000031A604FF0000383F3118880BD00BF3E
:1008F00080B500AF41F65C13C2F200031B68002B09
:1009000006DB41F66013C2F200031B68002B05DC16
:100910004EF25870C0F6000000F07CF880BD00BFB9
:1009200080B500AF41F65C13C2F200031B68002BD8
:1009300006D141F66013C2F200031B68002B05DCF0
:100940004EF26070C0F6000000F064F880BD00BF99
:1009500080B400AF41F25053C2F200034FF04002A6
:100960001A6041F25053C2F20003024A5A60BD4677
:1009700080BC70475815002080B483B000AF786009
:1009800041F25053C2F200035A6841F66413C2F2B6
:100990000003DB68136041F25053C2F200035A684F
:1009A00041F67413C2F200039B69536041F2505345
:1009B000C2F200035B687A68926A9A6041F250530F
:1009C000C2F200035B687A6892F820201A7341F241
:1009D0005053C2F200035B6803F1100241F250531E
:1009E000C2F200035A6041F25053C2F200035A6847
:1009F000064B9A4205D341F25053C2F20003044A17
:100A00005A6007F10C07BD4680BC7047581900209A
:100A10005815002080B582B000AF786041F65813B9
:100A2000C2F200037A681A60FFF7F2FB07F10807C9
:100A3000BD4680BD00000000000000000000000076
:100A400080B400AF41F66413C2F2000341F66412B1
:100A5000C2F200025A6041F66413C2F200035A68FF
:100A600041F66413C2F200031A6041F66413C2F245
:100A700000034FF0FF329A6041F66413C2F20003A4
:100A80004FF00002DA60BD4680BC704780B586B08A
:100A900000AFF860B9607A603B60FFF729FFFB6840
:100AA000002B05D07B68002B02D0BB68002B05D142
:100AB0004EF27070C0F60000FFF7ACFFFB683A68BA
:100AC0001A61FB687A68DA6041F66413C2F20003C7
:100AD0001B687B6107E07B699B68BA68D31ABB60BF
:100AE0007B691B687B617B699A68BB689A42F2D319
:100AF000FB687A691A60FB681B685A68FB685A6071
:100B0000FB685B687A69F96851607A6952681A60B3
:100B1000FB68BA689A607A6941F66413C2F200030E
:100B20009A4205D07B699A68BB68D21A7B699A6041
:100B300007F11807BD4680BD80B582B000AF786070
:100B4000FFF7D6FE7B68002B05D14EF28070C0F611
:100B50000000FFF75FFF7B68DB68002B05D14EF2DA
:100B60009070C0F60000FFF755FF7B681A6841F6E9
:100B70006413C2F200039A4208D07B681B687A684B
:100B8000126891687A6892688A189A607B685B68D4
:100B90007A6812681A607B681B687A6852685A60C3
:100BA0007B684FF00002DA6007F10807BD4680BDA0
:100BB00080B485B000AF7860396041F66413C2F24A
:100BC0000003DB68FB603A687B689A420ED9FA68DA
:100BD0007B689A4206D3FA683B689A4202D24FF089
:100BE000010301E04FF00003DBB20DE0FA687B681F
:100BF0009A4203D2FA683B689A4202D24FF001034C
:100C000001E04FF00003DBB2184607F11407BD46C0
:100C100080BC7047000000000000000000000000E1
:100C200080B485B000AF78607B681B68FB60FB68B0
:100C30001A687B681A607B681B687A685A60FB6870
:100C4000184607F11407BD4680BC704780B483B0D6
:100C500000AF78607B685B687A6812681A607B68AE
:100C60001B687A6852685A607B68184607F10C075F
:100C7000BD4680BC704700BF80B400AF41F674131E
:100C8000C2F2000341F67412C2F200025A6041F649
:100C90007413C2F200035A6841F67413C2F20003DF
:100CA0001A6041F67413C2F200034FF000029A601A
:100CB00041F67413C2F2000341F67412C2F200024C
:100CC0005A6141F67413C2F200035A6941F6741373
:100CD000C2F200031A61BD4680BC704780B584B083
:100CE00000AF7860FFF704FE7B6893F82030002B9C
:100CF00004D07B6893F820300E2B05D14EF2B070F3
:100D0000C0F60000FFF786FE7B684FF0000283F814
:100D1000202041F67413C2F20003FB60FB681B68DD
:100D2000FB60FB689A687B689B689A42F6D27B6896
:100D3000FA681A60FB685A687B685A607B685B686F
:100D4000FA6879685160FA6852681A607B681846D8
:100D500007F11007BD4680BD80B584B000AF0346E3
:100D6000FB71FFF7DDFD41F67413C2F200039B69CE
:100D7000FB60FB68FA7983F8202041F67410C2F218
:100D80000000FFF74DFF024641F67413C2F2000364
:100D90009A6141F67413C2F200039B694FF001029D
:100DA00083F82020F868FFF7E7FD6B46A3F12402E3
:100DB000FB68DB699A4205D24EF2C470C0F60000AF
:100DC000FFF728FE41F67413C2F200039B69184630
:100DD000F968FFF7C5FA07F11007BD4680BD00BFEF
:100DE00080B584B000AF78607B68FB604FF0200373
:100DF00083F31188FFF7E8FCFB6893F82030032B9E
:100E00000AD00D2B0ED0002B0FD1FFF7FBFC4FF0BB
:100E1000000383F3118815E0FB689B6A9A6802F16E
:100E200001029A60F868FFF711FFFB684FF0FF328C
:100E30009A62F868FFF752FFFFF7E4FC4FF00003F7
:100E400083F3118807F11007BD4680BD80B588B0D7
:100E500000AF03463960FB71FFF762FD3B68B3F1F9
:100E6000FF3F1BD041F67413C2F200039B6907F1E8
:100E70000C021046396840F6E152C0F60002FFF756
:100E800005FEFB791846FFF767FFBB69002B09D009
:100E900007F10C031846FFF74FFE03E0FB791846F5
:100EA000FFF75AFF41F67413C2F200039B699B6A75
:100EB000184607F12007BD4680BD00BF80B584B04D
:100EC00000AF78603960FFF72BFD7B683A689A6263
:100ED0007B689A6841F67413C2F200039B699B68B1
:100EE0009A4203D87868FFF7F9FE28E041F67413B8
:100EF000C2F200039B691846FFF7F0FE0346FB6051
:100F000041F67413C2F200037A689A617B684FF06D
:100F1000010283F82020F868FFF72EFD6B46A3F14D
:100F20002402FB68DB699A4205D24EF2C470C0F617
:100F30000000FFF76FFD7868F968FFF711FA07F115
:100F40001007BD4680BD00BF80B500AFFFF7E8FCCD
:100F500041F67413C2F200031B689A6841F67413D9
:100F6000C2F200039B699B689A4201D900F040F8E5
:100F700080BD00BF80B582B000AF41F67413C2F2ED
:100F800000039B697B6041F67410C2F20000FFF71A
:100F900047FE024641F67413C2F200039A6141F61D
:100FA0007413C2F200039B694FF0010283F8202002
:100FB0007868FFF793FE7868FFF7DEFC6B46A3F1D5
:100FC00024027B68DB699A4205D24EF2C470C0F6F7
:100FD0000000FFF71FFD41F67413C2F200039B6986
:100FE00018467968FFF7BCF907F10807BD4680BDD0
:100FF00080B582B000AF41F67413C2F200039B6962
:101000003B6041F67410C2F20000FFF709FE024691
:1010100041F67413C2F200039A6141F67413C2F2EE
:1010200000039B694FF0010283F820203B684FF0DA
:10103000000283F8202041F67413C2F200037B60A3
:101040007B681B687B607B689A683B689B689A42F8
:10105000F6D83B687A681A607B685A683B685A60C1
:101060003B685B687A68396851607A6852681A60D0
:101070003868FFF781FC6B46A3F124023B68DB690B
:101080009A4205D24EF2C470C0F60000FFF7C2FCCF
:1010900041F67413C2F200039B6918463968FFF7E2
:1010A0005FF907F10807BD4680BD00BF80B500AFFE
:1010B000FFF79EFF80BD00BF0000000000000000A1
:1010C00080B483B000AF786039603B681A687B6891
:1010D0001A603B687A681A6007F10C07BD4680BC4D
:1010E000704700BF80B485B000AF78607B681B6834
:1010F000FB60FB681A687B681A60FB68184607F19A
:101100001407BD4680BC704780B483B000AF7860E0
:1011100039607B683A689A607B684FF0020283F816
:1011200020207B684FF0000283F821207B683A681A
:101130009A637B684FF000025A637B684FF00002AD
:101140001A637B684FF000025A627B684FF001021D
:1011500083F822207B684FF000029A617A6841F69A
:101160007413C2F20003136141F67413C2F2000358
:101170005A697B685A617B685A6941F67413C2F2F6
:1011800000037968596141F67413C2F200035B6988
:1011900013617B6803F12C027B68DA627B6803F1E0
:1011A0003C027B68DA617B68184607F10C07BD4694
:1011B00080BC704780B485B000AFF860B96013465A
:1011C000FB7106E0FB68FA791A70FB6803F1010312
:1011D000FB60FA68BB689A42F4D307F11407BD4676
:1011E00080BC704780B586B000AFF860B9607A60A7
:1011F0003B60FB687B61FFF77BFBFB68002B08D043
:10120000BB689F2B05D97B687F2B02D83B68002BDE
:1012100005D14EF2E070C0F60000FFF7FBFBBB68A3
:10122000A3F12403FA68D2187B69DA607B69DB6872
:101230003A681A607B69DB683A6A5A607B69DA68E7
:1012400040F27533C0F60003136278697968FFF7DE
:101250005BFF0346184607F11807BD4680BD00BF77
:1012600080B588B002AFF860B9607A603B60FB6817
:1012700003F13C03F86819464FF0FF02FFF79AFFAD
:10128000FB6803F13C02F968BB68CB1810461946AD
:101290004FF05502FFF78EFF4FF0200383F31188C4
:1012A000FFF756FA3B6A0093F868B9687A683B68BA
:1012B000FFF798FF03467B6178694FF00001FFF765
:1012C000FDFDFFF763FA4FF0000383F311887B699C
:1012D000184607F11807BD4680BD00BF80B584B031
:1012E00000AF78607B687F2B05D94EF2F470C0F6B2
:1012F0000000FFF78FFB4FF0200383F31188FFF707
:1013000027FA41F67413C2F200039B699B6BFB60E2
:1013100041F67413C2F200039B699A6841F6741394
:10132000C2F200039B699B6B9A4208D041F674138A
:10133000C2F200039B699A687B689A4206D241F622
:101340007413C2F200039B697A689A6041F67413C1
:10135000C2F200039B697A689A63FFF7F5FDFFF715
:1013600015FA4FF0000383F31188FB68184607F164
:101370001007BD4680BD00BF80B582B000AF786069
:101380004FF0200383F31188FFF7E2F97B6893F8AD
:101390002030022B05D04EF60C00C0F60000FFF7FF
:1013A00039FB78684FF00001FFF788FDFFF7EEF991
:1013B0004FF0000383F311887B68184607F1080794
:1013C000BD4680BD80B582B000AF78604FF020038D
:1013D00083F31188FFF7BCF97B6893F8213043F061
:1013E0000403DAB27B6883F82120FFF7CFF94FF0CE
:1013F000000383F3118807F10807BD4680BD00BFD5
:1014000080B582B000AF78607B68002B05D14EF6C6
:101410002000C0F60000FFF7FDFA4FF0200383F331
:101420001188FFF795F94FF006007968FFF70EFD78
:10143000FFF7ACF94FF0000383F3118807F10807B9
:10144000BD4680BD80B582B000AF78604FF020030C
:1014500083F31188FFF77CF941F66413C2F20003AD
:10146000DB687A68D31A7B607B68002B04D04FF06E
:1014700006007968FFF7EAFCFFF788F94FF00003F0
:1014800083F3118807F10807BD4680BD80B500AF22
:101490004FF0200383F31188FFF75AF941F67413D4
:1014A000C2F200031B689A6841F67413C2F200038B
:1014B0009B699B689A4201D3FFF75CFDFFF766F9D1
:1014C0004FF0000383F3118880BD00BF80B582B068
:1014D00000AF78604FF0200383F31188FFF738F9ED
:1014E000786800F005F807F10807BD4680BD00BF29
:1014F00080B584B000AF786041F67413C2F2000387
:101500009B69FB60FB687A689A6209E0FB6803F1FB
:101510002C031846FFF7E6FD03461846FFF7DEFBEF
:10152000FB68DA6AFB6803F12C039A42EED1FB6890
:1015300093F8213003F00303002B09D1FB685B69AA
:10154000FA6812691A61FB681B69FA6852695A6184
:101550004FF00E00FFF700FC4EF63000C0F6000022
:10156000FFF758FA07F11007BD4680BD80B584B07B
:1015700000AF78607B68002B05D14EF64400C0F6C2
:101580000000FFF747FA4FF0200383F31188FFF7BD
:10159000DFF841F67413C2F200039A697B689A423D
:1015A00005D14EF65400C0F60000FFF733FA7B6811
:1015B00093F82230002B05D14EF66400C0F60000EF
:1015C000FFF728FA7B6893F820300E2B0FD041F6F6
:1015D0007413C2F200039A697B6803F12C0310466E
:1015E0001946FFF76DFD4FF00700FFF7B5FB7B686D
:1015F0009B6AFB60FFF7CAF84FF0000383F3118882
:10160000786800F037F8FB68184607F11007BD4608
:1016100080BD00BF000000000000000000000000CE
:1016200080B582B000AF78604FF0200383F311885B
:10163000FFF78EF87B6893F82230FF2B05D14EF62A
:101640008000C0F60000FFF7E5F97B6893F82230D0
:1016500003F10103DAB27B6883F82220FFF796F8E2
:101660004FF0000383F311887B68184607F10807E1
:10167000BD4680BD80B584B000AF78604FF02003D8
:1016800083F31188FFF764F87B6893F82230002B0E
:1016900005D14EF69400C0F60000FFF7BBF97B6859
:1016A00093F8223003F1FF33DAB27B6883F822200B
:1016B0007B6893F82230FB73FFF768F84FF0000364
:1016C00083F31188FB7B002B19D17B6893F82030C2
:1016D0000E2B14D17B6893F8213003F00303012B08
:1016E0000DD17B685B697A6812691A617B681B6936
:1016F0007A6852695A61786801F006FE00BF07F106
:101700001007BD4680BD00BF80B588B002AFF8604D
:10171000B9607A603B60F868B96801F077FD03460C
:101720007B617B69002B02D14FF0000335E07B69C0
:1017300003F13C03786919464FF0FF02FFF73AFDC9
:101740007B6903F13C027969BB68CB1810461946E6
:101750004FF05502FFF72EFD4FF0200383F3118861
:10176000FEF7F6FF3B6A00937869B9687A683B68D0
:10177000FFF738FD03463B613B694FF0010283F8F8
:10178000212038694FF00001FFF798FBFEF7FEFFBC
:101790004FF0000383F311883B69184607F11807DF
:1017A000BD4680BD000000000000000000000000F9
:1017B00080B582B000AF4FF0200383F31188FEF7AD
:1017C000C7FF41F67413C2F200031B697B607B689C
:1017D00093F8223003F10103DAB27B6883F8222008
:1017E000FEF7D4FF4FF0000383F311887B6818469F
:1017F00007F10807BD4680BD80B584B000AF7860B2
:101800004FF0200383F31188FEF7A2FF7B681B696A
:10181000FB60FA6841F67413C2F200039A4203D1E6
:101820004FF00003FB6013E0FB6893F82230FF2BBE
:1018300005D14EF6C800C0F60000FFF7EBF8FB68D4
:1018400093F8223003F10103DAB2FB6883F8222017
:10185000FEF79CFF4FF0000383F311887868FFF7D1
:1018600009FFFB68184607F11007BD4680BD00BFA1
:1018700080B483B000AF786039607B683A681A60E2
:101880003B685A687B685A607B685B683A6879682D
:1018900051603A6852681A6007F10C07BD4680BC77
:1018A000704700BF80B485B000AF78607B681B686C
:1018B000FB60FB681A687B681A607B681B687A6843
:1018C0005A60FB68184607F11407BD4680BC704794
:1018D00080B485B000AF78607B685B68FB60FB68B4
:1018E0005A687B685A607B685B687A681A60FB6834
:1018F000184607F11407BD4680BC704780B582B01A
:1019000000AF786039607B68002B02D03B68002B09
:1019100005DA4EF6E000C0F60000FFF77BF87A68C3
:101920007B685A607B685A687B681A607B683A6893
:101930009A6007F10807BD4680BD00BF80B582B040
:1019400000AF786039604FF0200383F31188FEF711
:10195000FFFE7868396800F00DF8FFF7F5FAFEF73A
:1019600015FF4FF0000383F3118807F10807BD4608
:1019700080BD00BF80B584B000AF78603960FEF7ED
:10198000B7FF7B68002B02D03B68002B05DA4EF6D0
:10199000F000C0F60000FFF73DF87B689B68002B65
:1019A00004DB7B681A687B689A420ED07B689B6870
:1019B000002B04DA7B681A687B689A4205D14EF6E0
:1019C0000010C0F60000FFF725F87B689B68FB60FD
:1019D0007B683A689A600BE07B681846FFF778FFEF
:1019E00003461846FFF77AF903466FF001029A6240
:1019F000FB6803F10103FB60FB68002BECDD07F1E2
:101A00001007BD4680BD00BF80B584B000AF7860D0
:101A10004FF0200383F31188FEF79AFE786800F0F8
:101A20000FF80346FB60FEF7B1FE4FF0000383F3AF
:101A30001188FB68184607F11007BD4680BD00BF3E
:101A400080B582B000AF7860FEF76AFF7B68002B3C
:101A500005D14EF61410C0F60000FEF7DBFF7B68E0
:101A60009B68002B04DB7B681A687B689A420ED067
:101A70007B689B68002B04DA7B681A687B689A4253
:101A800005D14EF62410C0F60000FEF7C3FF7B68B8
:101A90009B6803F1FF327B689A607B689B68002B30
:101AA0001BDA41F67413C2F200039B697A689A62EA
:101AB00041F67413C2F200039A697B681046194616
:101AC000FFF7D6FE4FF00300FFF746F941F6741317
:101AD000C2F200039B699B6A01E04FF000031846C5
:101AE00007F10807BD4680BD80B584B000AF7860BF
:101AF00039604FF0200383F31188FEF729FE7868E0
:101B0000396800F00FF80346FB60FEF73FFE4FF028
:101B1000000383F31188FB68184607F11007BD46E0
:101B200080BD00BF80B582B000AF78603960FEF73D
:101B3000F7FE7B68002B05D14EF63810C0F600008A
:101B4000FEF768FF7B689B68002B04DB7B681A68E4
:101B50007B689A420ED07B689B68002B04DA7B6816
:101B60001A687B689A4205D14EF65010C0F6000004
:101B7000FEF750FF7B689B6803F1FF327B689A6039
:101B80007B689B68002B23DA3B68002B08D17B68BD
:101B90009B6803F101027B689A604FF0FF3319E004
:101BA00041F67413C2F200039B697A689A6241F6A7
:101BB0007413C2F200039A697B6810461946FFF756
:101BC00057FE4FF003003968FFF740F9034601E084
:101BD0004FF00003184607F10807BD4680BD00BF5F
:101BE00080B582B000AF78607B68002B05D14EF6DF
:101BF0006810C0F60000FEF70DFF7B689B68002BA5
:101C000004DB7B681A687B689A420ED07B689B680D
:101C1000002B04DA7B681A687B689A4205D14EF67D
:101C20007810C0F60000FEF7F5FE4FF0200383F3B6
:101C30001188FEF78DFD7B689B6803F101027B68CC
:101C40009A607B689B68002B09DC7B681846FFF76D
:101C500029FE034618464FF00001FFF72FF9FEF763
:101C600095FD4FF0000383F3118807F10807BD4687
:101C700080BD00BF80B584B000AF7860FEF738FE4D
:101C80007B68002B05D14EF68C10C0F60000FEF7E5
:101C9000C1FE7B689B68002B04DB7B681A687B684D
:101CA0009A420ED07B689B68002B04DA7B681A6826
:101CB0007B689A4205D14EF6A010C0F60000FEF7F0
:101CC000A9FE7B689B6803F101027B689A607B68D0
:101CD0009B68002B0CDC7B681846FFF7E3FD03468E
:101CE000FB60FB684FF000029A62F868FEF7F6FFAF
:101CF00007F11007BD4680BD80B582B000AF7860A7
:101D00003960FEF7F5FD7B68002B02D03B68002BA5
:101D100005DC4EF6B410C0F60000FEF77BFE7B68D3
:101D20009B68002B04DB7B681A687B689A4229D089
:101D30007B689B68002B04DA7B681A687B689A4290
:101D400020D14EF6CC10C0F60000FEF763FE19E07D
:101D50007B689B6803F101027B689A607B689B68E3
:101D6000002B0BDC7B681846FFF79CFD03461846EA
:101D7000FEF7B4FF03464FF000029A623B6803F19E
:101D8000FF333B603B68002BE2DC07F10807BD46F0
:101D900080BD00BF80B584B000AF786039607B68DB
:101DA000002B02D03B68002B05D14EF6E410C0F6A4
:101DB0000000FEF72FFE7B689B68002B04DB7B682E
:101DC0001A687B689A420ED07B689B68002B04DA05
:101DD0007B681A687B689A4205D14EF6F810C0F607
:101DE0000000FEF717FE3B689B68002B04DB3B6896
:101DF0001A683B689A420ED03B689B68002B04DA55
:101E00003B681A683B689A4205D14EF61020C0F62E
:101E10000000FEF7FFFD4FF0200383F31188FEF76B
:101E200097FC7B689B6803F101027B689A607B6882
:101E30009B68002B0BDC7B681846FFF733FD0346DD
:101E40001846FEF74BFF03464FF000029A623B68CC
:101E50009B6803F1FF323B689A603B689B68002BEC
:101E600015DA41F67413C2F200039B69BB603B684C
:101E7000B8681946FFF7FCFCBB683A689A624FF0F5
:101E80000300FEF769FFBB689B6AFB6004E0FFF795
:101E90005BF84FF00003FB60FEF778FC4FF00003A7
:101EA00083F31188FB68184607F11007BD4680BD13
:101EB00080B485B000AF786039603B68FB60FB6838
:101EC0001B68FB60FA683B689A4205D0FB689A6819
:101ED0007B689B689A42F2D27B68FA681A60FB685A
:101EE0005A687B685A607B685B68FA6879685160F9
:101EF000FA6852681A6007F11407BD4680BC704743
:101F000080B485B000AF78607B681B68FB60FB68BD
:101F10001A687B681A607B681B687A685A60FB687D
:101F2000184607F11407BD4680BC704780B483B0E3
:101F300000AF78607B685B687A6812681A607B68BB
:101F40001B687A6852685A607B68184607F10C076C
:101F5000BD4680BC704700BF80B582B000AF7860DE
:101F60007B68002B05D14EF63020C0F60000FEF74E
:101F700051FD7A687B685A607B685A687B681A6092
:101F80007B684FF000029A6007F10807BD4680BDEC
:101F900080B582B000AF78604FF0200383F31188E2
:101FA000FEF7D6FB786800F00BF8FEF7EFFB4FF07A
:101FB000000383F3118807F10807BD4680BD00BF09
:101FC00080B584B000AF786041F67413C2F20003AC
:101FD0009B69BB60FEF7A4FC7B68002B05D14EF625
:101FE0004020C0F60000FEF715FD7B689B68002BC3
:101FF00054D07B689B68FB6027E0BB689A68FB68ED
:102000009A60FB6893F82030002B10D0042B1BD172
:10201000F868FFF78BFF0246FB689B6A104619467B
:10202000FFF746FFFB689B6A9B68FB600DE0FB685F
:102030004FF0010283F82020F868FFF777FF03468E
:102040001846FEF74BFE00BF05E0FB689A68BB68C8
:102050009B689A42D1D37B68B8681946FFF728FF7E
:10206000BB687A689A624FF00400FEF775FE7B68E1
:102070009A68BB689A4205D04EF65020C0F6000020
:10208000FEF7C8FCBB685A6B7B689A4210D04EF6CC
:102090006420C0F60000FEF7BDFC09E07B68BA686A
:1020A0009A60BB685A6B7B68DA60BB687A685A636F
:1020B00007F11007BD4680BD80B584B000AF7860E1
:1020C0004FF0200383F31188FEF742FB786800F09D
:1020D0000FF80346FB73FEF759FB4FF0000383F341
:1020E0001188FB7B184607F11007BD4680BD00BF75
:1020F00080B582B000AF7860FEF712FC7B68002BE1
:1021000005D14EF67820C0F60000FEF783FC7B6810
:102110009B68002B02D04FF0000317E041F67413C8
:10212000C2F200039A697B689A6041F67413C2F2A6
:1021300000039B695A6B7B68DA6041F67413C2F244
:1021400000039B697A685A634FF00103184607F150
:102150000807BD4680BD00BF80B586B000AF41F620
:102160007413C2F200039B69FB604FF0200383F3FA
:102170001188FEF7EDFAFB685B6B002B05D14EF67C
:102180008C20C0F60000FEF745FCFB685B6B9A688C
:10219000FB689A4205D04EF6A020C0F60000FEF77C
:1021A00039FCFB685B6BBB60BB68DA68FB685A6331
:1021B000BB681A68BB689A4234D0FB689B6B3B6172
:1021C000FB685B6B7B6111E07B691A687B699A42F3
:1021D00009D07B691B689A683B699A4203D97B697D
:1021E0001B689B683B617B69DB687B617B69002BBB
:1021F000EAD1FB683A699A60BB681846FFF780FE2F
:1022000003467B60BB687A689A607B685A6BBB68E0
:10221000DA607B68BA685A6378684FF00001FEF7AD
:102220004DFE03E0BB684FF000029A60FEF7AEFA85
:102230004FF0000383F31188BB68184607F11807B5
:10224000BD4680BD80B586B000AF41F67413C2F2C2
:1022500000039B69FB60FEF763FBFB685B6B002B75
:1022600005D14EF6B420C0F60000FEF7D3FBFB68A4
:102270005B6B9A68FB689A4205D04EF6C820C0F6A0
:102280000000FEF7C7FBFB685B6BBB60BB68DA68EE
:10229000FB685A63BB681A68BB689A4232D0FB6815
:1022A0009B6B3B61FB685B6B7B6111E07B691A6830
:1022B0007B699A4209D07B691B689A683B699A429C
:1022C00003D97B691B689B683B617B69DB687B6129
:1022D0007B69002BEAD1FB683A699A60BB681846B3
:1022E000FFF70EFE03467B60BB687A689A607B68E6
:1022F0005A6BBB68DA607B68BA685A637868FEF725
:10230000EDFC03E0BB684FF000029A60BB68184622
:1023100007F11807BD4680BD80B584B000AF41F617
:102320007413C2F200039B69FB604FF0200383F338
:102330001188FEF70DFAFB685B6B002B2DD0FB6854
:102340005B6BBB60BB68DA68FB685A63BB681A6882
:10235000BB689A4213D0BB681846FFF7D1FD03460D
:102360007B60BB687A689A607B685A6BBB68DA608E
:102370007B68BA685A637868FEF7B0FC03E0BB6814
:102380004FF000029A60FB685B6B002BD7D1FB68B3
:102390009A6BFB689A60FEF7D7FDFEF7F7F94FF0EE
:1023A000000383F3118807F11007BD4680BD00BF0D
:1023B00080B584B000AFF860B9607A60FB68002B2C
:1023C00002D0BB68002B05D14EF6E020C0F600001D
:1023D000FEF720FB4FF0200383F31188FEF7B8F9D6
:1023E000FB681A68BB681A60FB68BA681A6041F635
:1023F0007413C2F200039A69BB685A60BB687A68BA
:102400009A60BB684FF00002DA60FEF7BFF94FF048
:10241000000383F3118807F11007BD4680BD00BF9C
:1024200080B584B000AF786039607B68002B02D043
:102430003B68002B05D14EF6F820C0F60000FEF7F1
:10244000E9FA7B68FB604FF0200383F31188FEF705
:102450007FF90CE0FB681A683B689A4204D13B683C
:102460001A68FB681A6007E0FB681B68FB60FB6882
:102470001A687B689A42EDD1FEF788F94FF00003A5
:1024800083F3118807F11007BD4680BD80B584B085
:1024900000AF78604FF0200383F31188FEF758F9FE
:1024A00041F67413C2F200039B691A6B7B681340F8
:1024B000FB6041F67413C2F200039A6941F674138B
:1024C000C2F200039B69196B7B686FEA03030B4040
:1024D0001363FEF75BF94FF0000383F31188FB6889
:1024E000184607F11007BD4680BD00BF80B582B019
:1024F00000AF78604FF0200383F31188FEF728F9CE
:1025000041F67413C2F200039A6941F67413C2F2E1
:1025100000039B69196B7B680B431363136B7B6030
:10252000FEF734F94FF0000383F311887B681846F7
:1025300007F10807BD4680BD80B584B000AF786064
:102540003960FEF7D5F97B68002B05D14EF60C30CB
:10255000C0F60000FEF75EFA7B681B68FB6010E0C7
:10256000FB68DA683B681A43FB68DA60FB685A6804
:10257000FB689B681046194600F04EF8FB681B6824
:10258000FB60FA687B689A42EAD107F11007BD4602
:1025900080BD00BF80B584B000AF78604FF02003ED
:1025A00083F31188FEF7D4F87B68DB68FB607B68F7
:1025B0004FF00002DA60FEF7E9F84FF0000383F312
:1025C0001188FB68184607F11007BD4680BD00BFA3
:1025D00080B582B000AF786039607B68002B05D190
:1025E0004EF62430C0F60000FEF714FA4FF0200338
:1025F00083F31188FEF7ACF87868396800F00CF8BE
:10260000FEF7A2FCFEF7C2F84FF0000383F3118837
:1026100007F10807BD4680BD80B582B000AF786085
:102620003960FEF765F97B68002B05D14EF6343032
:10263000C0F60000FEF7EEF97B681A6B3B681A43A0
:102640007B681A637B6893F82030082B06D17B687F
:102650001A6B7B689B6A1340002B0DD17B6893F843
:102660002030092B0FD17B681A6B7B689B6A1A405C
:102670007B689B6A9A4206D17868FEF72FFB034677
:102680004FF000029A6207F10807BD4680BD00BF07
:1026900080B582B000AF786039604FF0200383F3DB
:1026A0001188FEF755F878683968FFF745FFFEF79F
:1026B0004BFCFEF76BF84FF0000383F3118807F132
:1026C0000807BD4680BD00BF80B485B000AF78600C
:1026D0007B68DB68FB607B684FF00002DA60FB68B8
:1026E000184607F11407BD4680BC704780B584B01A
:1026F00000AF786039607B68002B05D14EF648301A
:10270000C0F60000FEF786F94FF00003FB602DE0F5
:102710004FF00102FB6802FA03F31A463B681340CC
:10272000002B1FD0FB684FEA83037A68D3181B681D
:10273000002B05D14EF65C30C0F60000FEF76AF9BA
:102740004FF00102FB6802FA03F36FEA03033A68F1
:1027500013403B60FB684FEA83037A68D3181B6819
:10276000F8689847FB6803F10103FB603B68002BA6
:10277000CED107F11007BD4680BD00BF80B584B043
:1027800000AF786041F67413C2F200039B69BB602E
:102790004FF0200383F31188FDF7DAFFBB681A6B53
:1027A0007B681340FB60FB68002B0BD1BB687A6829
:1027B0009A624FF00800FEF7CFFABB681A6B7B688D
:1027C0001340FB60FB68C3F10003FA681340FB6031
:1027D000BB681A6BFB686FEA03031A40BB681A6395
:1027E000FDF7D4FF4FF0000383F31188FB68184610
:1027F00007F11007BD4680BD80B584B000AF78609A
:1028000041F67413C2F200039B69BB604FF02003D2
:1028100083F31188FDF79CFFBB681A6B7B6813403C
:10282000FB60FB68002B0BD1BB687A689A624FF0A3
:102830000800FEF791FABB681A6B7B681340FB60D7
:10284000BB681A6BFB686FEA03031A40BB681A6324
:10285000FDF79CFF4FF0000383F31188FB681846D7
:1028600007F11007BD4680BD80B584B000AF786029
:1028700041F67413C2F200039B69FB604FF0200322
:1028800083F31188FDF764FFFB681A6B7B681A40BD
:102890007B689A4206D0FB687A689A624FF009001A
:1028A000FEF75AFAFB681A6B7B686FEA03031A405B
:1028B000FB681A63FDF76AFF4FF0000383F311888A
:1028C0007B68184607F11007BD4680BD0000000078
:1028D00080B483B000AF786039607B683A681A6072
:1028E0003B685A687B685A607B685B683A687968BD
:1028F00051603A6852681A6007F10C07BD4680BC07
:10290000704700BF80B485B000AF78607B681B68FB
:10291000FB60FB681A687B681A607B681B687A68D2
:102920005A60FB68184607F11407BD4680BC704723
:1029300080B582B000AF786039603B68002B02D16F
:102940004FF0FF3316E041F67413C2F200039B69A7
:102950007A689A6241F67413C2F200039A697B683E
:1029600010461946FFF7B4FF4FF00D003968FEF727
:102970006DFA0346184607F10807BD4680BD00BF43
:1029800080B485B000AFF860B9607A603B60FA68E7
:10299000FB685A60FB685A68FB681A60FB684FF076
:1029A00000029A60FB68BA685A61FB685A69FB6862
:1029B0009A61FB689A69FB68DA60BA687B68D2182A
:1029C000FB681A61FB683A68DA61FB68BA691A62E7
:1029D00007F11407BD4680BC704700BF80B582B0C8
:1029E00000AF7860FDF784FF7B68DA687B685A6126
:1029F0007B685A697B689A617B684FF000029A6035
:102A00000BE07B681846FFF77DFF03461846FEF78C
:102A100065F903466FF001029A627B681A687B6869
:102A20009A42EED107F10807BD4680BD80B582B05D
:102A300000AF78600B46FB70FDF75AFF7B685A6960
:102A40007B689B699A4206D17B689B68002B02D009
:102A50004FF0010301E04FF00003DBB2002B02D086
:102A60006FF003032AE07B689B6803F101027B6837
:102A70009A607B685B69FA781A7003F101027B68DF
:102A80005A617B685A697B681B699A4203D37B68E9
:102A9000DA687B685A617B681A687B689A420BD057
:102AA0007B681846FFF72EFF03461846FEF716F917
:102AB00003464FF000029A624FF00003184607F1F8
:102AC0000807BD4680BD00BF80B584B000AF786008
:102AD00039604FF0200383F31188FDF739FE7B68DE
:102AE000DB69002B15D07B68DB697868984710E0BC
:102AF00078683968FFF71CFF0346FB60FB68002B12
:102B000008DAFDF743FE4FF0000383F31188FB68FA
:102B100023E000BF7B689B68002BE9D07B689B6843
:102B200003F1FF327B689A607B689B691A78FA72BE
:102B300003F101027B689A617B689A697B681B6973
:102B40009A4203D37B68DA687B689A61FDF71EFEC0
:102B50004FF0000383F31188FB7A184607F1100742
:102B6000BD4680BD80B586B000AFF860B9607A60C0
:102B70003B60FB68DB693B614FF000037B617B6876
:102B8000002B05D14EF67030C0F60000FDF742FF75
:102B90004FF0200383F31188FDF7DAFD3B69002B2A
:102BA00012D03B69F86898470EE0F8683968FFF77B
:102BB000BFFE0346002B08D0FDF7E8FD4FF00003F1
:102BC00083F311887B693BE000BFFB689B68002BA7
:102BD000EBD0FB689B6803F1FF32FB689A60FB68EF
:102BE0009B691978BA681170BA6802F10102BA607B
:102BF00003F10102FB689A61FB689A69FB681B6933
:102C00009A4203D3FB68DA68FB689A61FDF7BEFD60
:102C10004FF0000383F311887B6903F101037B61AB
:102C20007B6803F1FF337B607B68002B01D17B69FC
:102C300006E04FF0200383F31188FDF789FDADE72F
:102C4000184607F11807BD4680BD00BF80B485B0A7
:102C500000AFF860B9607A603B60FA68FB685A6060
:102C6000FB685A68FB681A60FB687A689A60FB68C0
:102C7000BA685A61FB685A69FB689A61FB689A698D
:102C8000FB68DA60BA687B68D218FB681A61FB6877
:102C90003A68DA61FB68BA691A6207F11407BD463F
:102CA00080BC704780B582B000AF7860FDF720FE31
:102CB0007B68DA687B685A617B685A697B689A61CD
:102CC0007B681B691A467B68DB68D31A1A467B68E7
:102CD0009A600BE07B681846FFF714FE034618461F
:102CE000FDF7FCFF03466FF001029A627B681A68E9
:102CF0007B689A42EED107F10807BD4680BD00BF50
:102D000080B586B000AFF8600B467A60FB724FF07A
:102D1000200383F31188FDF71BFD10E0F868796844
:102D2000FFF706FE03467B617B69002B07DAFDF7A0
:102D30002DFD4FF0000383F311887B692BE0FB68C6
:102D40009B68002BEAD0FB689B6803F1FF32FB68AD
:102D50009A60FB685B69FA7A1A7003F10102FB68FA
:102D60005A61FB685A69FB681B699A4203D3FB6886
:102D7000DA68FB685A61FB68DB69002B03D0FB68EB
:102D8000DB69F8689847FDF701FD4FF0000383F316
:102D900011884FF00003184607F11807BD4680BDA3
:102DA00080B584B000AF7860FDF7A2FD7B685A69FA
:102DB0007B689B699A4206D17B689B68002B02D096
:102DC0004FF0010301E04FF00003DBB2002B02D013
:102DD0006FF0020329E07B689B6803F101027B68C6
:102DE0009A607B689B691A78FA7303F101027B6829
:102DF0009A617B689A697B681B699A4203D37B68F6
:102E0000DA687B689A617B681A687B689A420BD0A3
:102E10007B681846FFF776FD03461846FDF75EFF10
:102E200003464FF000029A62FB7B184607F1100739
:102E3000BD4680BD80B586B000AFF860B9607A60ED
:102E40003B60FB68DB693B614FF000037B617B68A3
:102E5000002B05D14EF68430C0F60000FDF7DAFDF8
:102E60004FF0200383F31188FDF772FC0EE0F86841
:102E70003968FFF75DFD0346002B07D0FDF786FCA0
:102E80004FF0000383F311887B6941E0FB689B6886
:102E9000002BECD0FB689B6803F1FF32FB689A6063
:102EA000FB685B69BA6812781A7003F10102FB686B
:102EB0005A61BB6803F10103BB60FB685A69FB6898
:102EC0001B699A4203D3FB68DA68FB685A613B6965
:102ED000002B02D03B69F8689847FDF757FC4FF08C
:102EE000000383F311887B6903F101037B617B6835
:102EF00003F1FF337B607B68002B01D17B6907E026
:102F00004FF0200383F31188FDF722FC00BFBDE7DB
:102F1000184607F11807BD4680BD00BF000000003D
:102F200080B400AF41F6DC73C2F2000303F1070383
:102F300023F007031A4640F6C443C2F200031A60A6
:102F400045F20003C2F2000323F007031A4640F6DD
:102F5000C843C2F200031A6040F6C843C2F200033D
:102F60001A6840F6CC43C2F200031A60BD4680BC2A
:102F7000704700BF80B584B000AF78604FF0200389
:102F800083F31188FDF7E4FB786800F00FF803463F
:102F9000FB60FDF7FBFB4FF0000383F31188FB6838
:102FA000184607F11007BD4680BD00BF80B584B04C
:102FB00000AF7860FDF79CFC7B6803F1070323F00A
:102FC00007037B6040F6C843C2F200031B681A4641
:102FD00040F6C443C2F200031B68D31A1A467B684A
:102FE0009A4202D24FF0000312E040F6C443C2F20C
:102FF00000031B68FB6040F6C443C2F200031A687A
:103000007B68D21840F6C443C2F200031A60FB6822
:10301000184607F11007BD4680BD00BF80B400AF61
:1030200040F6C843C2F200031B681A4640F6C44388
:10303000C2F200031B68D31A1846BD4680BC704715
:1030400080B584B000AF78604FF0200383F311881F
:10305000FDF77EFB786800F00FF80346FB60FDF794
:1030600095FB4FF0000383F31188FB68184607F1C6
:103070001007BD4680BD00BF80B584B000AF78604A
:10308000FDF736FC40F6C843C2F200031A687B68BD
:10309000C3F10003D31823F00703FB6040F6C443D9
:1030A000C2F200031B68FA689A4202D24FF0000392
:1030B00006E040F6C843C2F20003FA681A60FB68F3
:1030C000184607F11007BD4680BD00BF80B582B02D
:1030D00000AF78604FF0200383F31188FDF738FBD1
:1030E000786800F00BF8FDF751FB4FF0000383F315
:1030F000118807F10807BD4680BD00BF80B582B0CA
:1031000000AF7860FDF7F4FB7B6803F1070323F061
:1031100007037B6040F6C843C2F200031A687B686D
:10312000D21840F6CC43C2F200031B689A4205D97C
:103130004EF6A030C0F60000FDF76CFC40F6C84328
:10314000C2F200031A687B68D21840F6C843C2F284
:1031500000031A6007F10807BD4680BD00000000AB
:1031600080B500AF40F6D043C2F2000342F675725C
:10317000C0F600021A6040F6D043C2F200034FF0DE
:1031800000029A6040F6D043C2F200034FF0000202
:10319000DA600248FEF7E0FE80BD00BFE00C0020D0
:1031A00080B586B000AFF860B9607A60BB6803F0A4
:1031B0000703002B04D17B6803F00703002B05D025
:1031C0004EF6B030C0F60000FDF724FCFB684FF06F
:1031D00000021A60BB687B61FB687A699A60FB68D1
:1031E0004FF00002DA607B694FF000021A607B68E2
:1031F000A3F108027B695A60FB6803F110031846CB
:10320000FEF7AAFE07F11807BD4680BD80B586B05F
:1032100000AF786039607B68002B04D140F6D04362
:10322000C2F200037B603B6803F1070323F007034E
:103230003B607B6803F108037B617B6803F110034B
:103240001846FEF7A5FE36E07B691B683B613B69CB
:103250005A683B689A422CD33B695A683B6803F131
:1032600008039A4204D23B691A687B691A6017E026
:103270003B6803F108033A69D318FB603B691A689D
:10328000FB681A603B695A683B68D31AA3F10802CD
:10329000FB685A607B69FA681A603B693A685A6051
:1032A0003B697A681A60FEF757FF3B6903F1080330
:1032B00025E03B697B617B691B68002BC4D1FEF76D
:1032C0004BFF7B681B68002B17D07B681B683A6834
:1032D00002F108021046984703463B613B69002B08
:1032E0000BD03B697A681A603B693A685A603B695F
:1032F00003F108033B613B6901E04FF0000318460E
:1033000007F11807BD4680BD80B586B000AF786074
:103310007B68002B05D14EF6C030C0F60000FDF7EB
:1033200079FB7B68A3F108033B613B691B68FB6089
:10333000FB6803F108037B61FB6803F11003184687
:10334000FEF726FE3A697B699A420ED37B695B6879
:1033500003F108037A69D2183B699A4205D94EF6FF
:10336000D030C0F60000FDF755FBFB6803F1080202
:103370007B699A4203D03A697B699A423FD97B695B
:103380001B68002B04D07B691A683B699A4236D9C6
:103390007B691A683B691A607B693A691A603B6904
:1033A0005B6803F108033A69D2183B691B689A42CB
:1033B0000ED13B695A683B691B685B68D31803F1FF
:1033C00008023B695A603B691B681A683B691A60CE
:1033D0007B695B6803F108037A69D2183B699A42FA
:1033E00011D17B695A683B695B68D31803F1080205
:1033F0007B695A603B691A687B691A6003E07B69E4
:103400001B687B619EE700BFFEF7A6FE07F1180769
:10341000BD4680BD80B586B000AF786039607B68FE
:10342000002B04D140F6D043C2F200037B607B68DE
:1034300003F110031846FEF7ABFD4FF00003FB60ED
:103440004FF000033B617B6803F108037B610CE0F4
:103450007B691B685B68FA68D318FB603B6903F102
:1034600001033B617B691B687B617B691B68002BE7
:10347000EED13B68002B02D03B68FA681A60FEF779
:103480006BFE3B69184607F11807BD4680BD00BFBB
:1034900080B500AF02F04EFC4FF66000C0F60000B1
:1034A00004F04EFE00F064F800F05AFA00F0B0FDAF
:1034B00000F0DEFE01F084F801F012FA01F078FB72
:1034C00001F046FD01F054FE06F008FB80BD00BF90
:1034D00080B485B000AF786039604FF48053CEF28D
:1034E00000035B68FB603A687B689A420ED9FA6811
:1034F0007B689A4206D3FA683B689A4202D24FF040
:10350000010301E04FF00003DBB20DE0FA687B68D5
:103510009A4203D2FA683B689A4202D24FF0010302
:1035200001E04FF00003DBB2184607F11407BD4677
:1035300080BC704780B584B000AF78604FF4805392
:10354000CEF200035B68FB60FA687B68D318BB604F
:1035500000BFF868B968FFF7BBFF0346002BF8D13E
:1035600007F11007BD4680BD00000000000000000C
:1035700080B500AF02F0ECFD80BD00BF80B582B029
:1035800000AF78607B684FF001021A707B684FF0E3
:1035900000025A607B684FF000029A607B684FF02F
:1035A0000002DA607B684FF000021A617B684FF01E
:1035B00000025A617B6803F118031846FEF7CCFC41
:1035C00007F10807BD4680BD80B582B000AF7860C6
:1035D00039607B68002B05D14EF6F030C0F6000054
:1035E000FDF718FA4FF0200383F31188FDF7B0F8C8
:1035F0007B681B78012B09D07B681B78022B05D0D8
:103600004EF60040C0F60000FDF704FA7B683A6809
:103610005A60786802F00EFE7B684FF002021A7062
:10362000FDF7B4F84FF0000383F3118807F10807A2
:10363000BD4680BD80B582B000AF78607B68002B4E
:1036400005D14EF61040C0F60000FDF7E3F94FF04B
:10365000200383F31188FDF77BF87B681B78012B2F
:1036600009D07B681B78022B05D04EF61C40C0F6B3
:103670000000FDF7CFF9786802F024FE7B684FF078
:1036800001021A70FDF782F84FF0000383F31188EE
:1036900007F10807BD4680BD80B584B000AFF86073
:1036A000B9607A603B604FF0200383F31188FDF727
:1036B0004FF8F868B9687A683B6800F00BF8FDF7D6
:1036C00065F84FF0000383F3118807F11007BD463A
:1036D00080BD00BF80B584B000AFF860B9607A608B
:1036E0003B60FDF705F9FB68002B0ED0BB68002B93
:1036F0000BD07B68002B08D03B68012B0BD03B68BC
:1037000003F00103DBB2002B05D04EF62C40C0F6CF
:103710000000FDF77FF9FB681B78022B0DD0FB68DA
:103720001B78042B09D0FB681B78052B05D04EF6BF
:103730004440C0F60000FDF76DF9FB687A689A60B6
:10374000FB683A68DA60FB68BA681A61FB684FF098
:1037500003021A70F86802F0E7FD07F11007BD4692
:1037600080BD00BF80B584B000AF78607B68002B5F
:1037700005D14EF66040C0F60000FDF74BF94FF062
:10378000200383F31188FCF7E3FF7B681B78022B8F
:1037900009D07B681B78032B05D04EF67840C0F625
:1037A0000000FDF737F97B681B78022B1AD0786888
:1037B00002F03AFE7B684FF000021A617B684FF01E
:1037C00002021A707B685B69002B0BD07B685B6917
:1037D000FB607B684FF000025A61F8686FF00101EE
:1037E000FDF76CFBFCF7D2FF4FF0000383F3118869
:1037F00007F11007BD4680BD80B584B000AF78608A
:10380000FDF776F87B68002B05D14EF69040C0F6A8
:103810000000FDF7FFF87B681B78022B0DD07B685A
:103820001B78032B09D07B681B78042B05D04EF640
:10383000A840C0F60000FDF7EDF87B681B78022B6E
:103840001CD0786802F0F0FD7B684FF000021A612E
:103850007B684FF002021A707B685B69002B0DD009
:103860007B685B69FB607B684FF000025A61FB6814
:103870006FF001029A62F868FDF730FA07F110075D
:10388000BD4680BD80B586B000AFF860B9607A6093
:103890003B604FF0200383F31188FCF759FFFB686E
:1038A0005B69002B05D04EF6C440C0F60000FDF762
:1038B000B1F8F868B9687A683B68FFF70BFF41F622
:1038C0007413C2F200039A69FB685A614FF0020058
:1038D000FDF742FA41F67413C2F200039B699B6A3A
:1038E0007B61FCF753FF4FF0000383F311887B6982
:1038F000184607F11807BD4680BD00BF80B582B0ED
:1039000000AF78607B68002B05D14EF6D840C0F63A
:103910000000FDF77FF87B6803F118031846FEF7F7
:1039200037FB07F10807BD4680BD00BF80B582B0F8
:1039300000AF78607B68002B05D14EF6EC40C0F6F6
:103940000000FDF767F8FEF707FC07F10807BD4622
:1039500080BD00BF0000000000000000000000006B
:1039600080B500AF03F05EF980BD00BF80B582B0C6
:1039700000AF78607B684FF001021A707B684FF0EF
:1039800000025A607B6803F1080318464FF00001FB
:10399000FDF7B4FF7B6803F1140318464FF00001F4
:1039A000FDF7ACFF7B6803F120027B681A627B683D
:1039B00003F124027B685A627B6803F128027B686A
:1039C0009A627B6803F12C027B68DA627B6803F100
:1039D00030027B681A6307F10807BD4680BD00BF4F
:1039E00080B582B000AF786039607B68002B05D16C
:1039F0004EF60050C0F60000FDF70CF84FF0200323
:103A000083F31188FCF7A4FE7B681B78012B15D08B
:103A10007B681B78022B11D07B681B78032B0DD0A1
:103A20004EF61050C0F60000FCF7F4FF06E04FF031
:103A300006004FF00101FDF709FA00E000BF7B68C6
:103A40001B78022BF3D07B681B78012B09D17B6894
:103A50003A685A60786803F0F7F87B684FF0030221
:103A60001A70FCF793FE4FF0000383F3118807F1FF
:103A70000807BD4680BD00BF80B582B000AF78604A
:103A80007B68002B05D14EF62050C0F60000FCF7F5
:103A9000C1FF4FF0200383F31188FCF759FE7B68C8
:103AA0001B78012B09D07B681B78032B05D04EF6C1
:103AB0002C50C0F60000FCF7ADFF786803F024F945
:103AC0007B6803F1140318464FF00001FDF752FF25
:103AD0007B6803F1080318464FF00001FDF74AFF29
:103AE000FDF732FA7B684FF001021A70FCF74EFEC8
:103AF0004FF0000383F3118807F10807BD4680BD2E
:103B000080B584B000AF786039604FF0200383F354
:103B10001188FCF71DFE7868396800F00FF803463D
:103B2000FB73FCF733FE4FF0000383F31188FB7B3C
:103B3000184607F11007BD4680BD00BF80B582B0B2
:103B400000AF78603960FCF7D3FE7B68002B02D0B1
:103B50003B68002B05D14EF63C50C0F60000FCF748
:103B600059FF7B681B78032B09D07B681B78042BDB
:103B700005D04EF65050C0F60000FCF74BFF7B68B6
:103B80001B78042B08D0786803F0FEF8034683F016
:103B90000103DBB2002B02D04FF0000305E0786890
:103BA000396803F005F94FF00103184607F10807DB
:103BB000BD4680BD80B582B000AF786039604FF0FF
:103BC000200383F31188FCF7C3FD7868396800F09F
:103BD0000BF8FCF7DBFD4FF0000383F3118807F1CE
:103BE0000807BD4680BD00BF80B582B000AF7860D9
:103BF0003960FCF77DFE7B68002B05D14EF66850DE
:103C0000C0F60000FCF706FF7B681B78032B09D089
:103C10007B681B78042B05D04EF68450C0F600005C
:103C2000FCF7F8FE7868396803F02CF907F108070B
:103C3000BD4680BD80B584B000AF786039604FF07C
:103C4000200383F31188FCF783FD7868396800F05E
:103C50000FF80346FB73FCF799FD4FF0000383F365
:103C60001188FB7B184607F11007BD4680BD00BFD9
:103C700080B582B000AF78603960FCF739FE7B68B0
:103C8000002B02D03B68002B05D14EF6A050C0F6A9
:103C90000000FCF7BFFE7B681B78032B09D07B6814
:103CA0001B78042B05D04EF6B050C0F60000FCF790
:103CB000B1FE7B681B78042B08D0786803F0FCF811
:103CC000034683F00103DBB2002B02D04FF0000368
:103CD00005E07868396803F003F94FF001031846EE
:103CE00007F10807BD4680BD80B584B000AFF8601D
:103CF000B9607A604FF0200383F31188FCF728FD48
:103D0000F868B9687A6800F00BF8FCF73FFD4FF0EF
:103D1000000383F3118807F11007BD4680BD00BF83
:103D200080B584B000AFF860B9607A60FCF7E0FD60
:103D3000FB68002B05D14EF6C850C0F60000FCF71A
:103D400069FEFB681B78032B09D0FB681B78042BEA
:103D500005D04EF6DC50C0F60000FCF75BFEF868BC
:103D6000B9687A6803F04AF907F11007BD4680BDCB
:103D700080B582B000AF78604FF0200383F31188E4
:103D8000FCF7E6FC786800F00BF8FCF7FFFC4FF05E
:103D9000000383F3118807F10807BD4680BD00BF0B
:103DA00080B582B000AF7860FCF7A2FD7B68002B85
:103DB00005D14EF6F050C0F60000FCF72BFE7B68F4
:103DC0001B78032B09D07B681B78042B05D04EF69B
:103DD0000860C0F60000FCF71DFE786803F0D6F915
:103DE00007F10807BD4680BD80B586B000AFF8601A
:103DF000B9607A604FF0200383F31188FCF7A8FCC8
:103E0000FB681B78032B1ED0FB681B78042B1AD091
:103E10004EF62060C0F60000FCF7FCFD13E0FB68E6
:103E200003F1080318467968FDF77CFE03467B61C1
:103E30007B69002B08D0FCF7A9FC4FF0000383F34B
:103E400011887B6912E000BFF868B968FFF776FE59
:103E5000034683F00103DBB2002BE0D1FCF796FCB4
:103E60004FF0000383F311884FF00003184607F169
:103E70001807BD4680BD00BF80B586B000AFF860B2
:103E8000B9607A604FF0200383F31188FCF760FC7F
:103E9000FB681B78032B1ED0FB681B78042B1AD001
:103EA0004EF63460C0F60000FCF7B4FD13E0FB688A
:103EB00003F1140318467968FDF734FE03467B616D
:103EC0007B69002B08D0FCF761FC4FF0000383F303
:103ED00011887B6912E000BFF868B968FFF7C8FE77
:103EE000034683F00103DBB2002BE0D1FCF74EFC6C
:103EF0004FF0000383F311884FF00003184607F1D9
:103F00001807BD4680BD00BF80B582B000AF7860A5
:103F10007B68002B05D14EF64860C0F60000FCF728
:103F200079FD4FF0200383F31188FCF711FC7B68C7
:103F30001B78032B09D07B681B78042B05D04EF629
:103F40005860C0F60000FCF765FD7B681B78032B0A
:103F500010D1786803F07AF97B684FF004021A7088
:103F60007B6803F12C0318464FF00001FEF7E4FADA
:103F7000FCF7EAFFFCF70AFC4FF0000383F311881B
:103F800007F10807BD4680BD80B582B000AF7860FC
:103F90007B68002B05D14EF66860C0F60000FCF788
:103FA00039FD4FF0200383F31188FCF7D1FB7B68C8
:103FB0001B78032B09D07B681B78042B05D04EF6A9
:103FC0007860C0F60000FCF725FD7B681B78042BA9
:103FD00010D1786803F04CF97B684FF003021A7037
:103FE0007B6803F1300318464FF00001FEF7A4FA96
:103FF000FCF7AAFFFCF7CAFB4FF0000383F311881C
:1040000007F10807BD4680BD000000000000000069
:1040100080B500AF03F044F980BD00BF80B483B029
:1040200000AF78607B684FF001021A707B684FF038
:1040300000025A6007F10C07BD4680BC704700BF04
:1040400080B582B000AF786039607B68002B02D009
:104050003B68002B05D14EF69060C0F60000FCF7DF
:10406000D9FC4FF0200383F31188FCF771FB7B68C8
:104070001B78012B09D07B681B78022B05D04EF6EC
:10408000A060C0F60000FCF7C5FC7B683A685A6087
:10409000786803F00FF97B684FF002021A70FCF7A2
:1040A00075FB4FF0000383F3118807F10807BD4645
:1040B00080BD00BF80B582B000AF78607B68002B08
:1040C00005D14EF6B060C0F60000FCF7A3FC4FF03F
:1040D000200383F31188FCF73BFB7B681B78012BE3
:1040E00009D07B681B78022B05D04EF6BC60C0F669
:1040F0000000FCF78FFC786803F008F97B684FF04C
:1041000001021A70FCF742FB4FF0000383F31188A1
:1041100007F10807BD4680BD80B582B000AF78606A
:1041200039607B68002B02D03B68122B05D94EF614
:10413000CC60C0F60000FCF76DFC4FF0200383F369
:104140001188FCF705FB7B681B78022B08D17B6884
:104150005B683A6853F8323003F00303002B05D153
:104160004EF6E460C0F60000FCF754FC786839684D
:1041700003F0F0F8FCF70AFB4FF0000383F311881B
:1041800007F10807BD4680BD80B582B000AF7860FA
:1041900039607B68002B02D03B68122B05D94EF6A4
:1041A000FC60C0F60000FCF735FC4FF0200383F301
:1041B0001188FCF7CDFA7B681B78022B08D17B684D
:1041C0005B683A6853F8323003F00303002B05D1E3
:1041D0004EF61470C0F60000FCF71CFC78683968D5
:1041E00003F0ACF9FCF7D2FA4FF0000383F3118827
:1041F00007F10807BD4680BD80B586B000AFF86006
:10420000B9607A60FB68002B05D0BB68122B02D81E
:104210007B68002B05D14EF62C70C0F60000FCF731
:10422000F9FBFB681B78022B05D04EF64470C0F6F4
:104230000000FCF7EFFBFB685B681A46BB684FEABF
:10424000C303D3187B617B697A6892E8030083E833
:104250000300F868B96803F07DF807F11807BD4658
:1042600080BD00BF00000000000000000000000052
:1042700080B500AF03F0F2F980BD00BF80B483B019
:1042800000AF78607B684FF001021A707B684FF0D6
:1042900000025A6007F10C07BD4680BC704700BFA2
:1042A00080B582B000AF786039607B68002B02D0A7
:1042B0003B68002B05D14EF66070C0F60000FCF79D
:1042C000A9FB4FF0200383F31188FCF741FA7B68C8
:1042D0001B78012B09D07B681B78022B05D04EF68A
:1042E0006C70C0F60000FCF795FB7B683A685A607A
:1042F000786803F0C5F97B684FF002021A70FCF78A
:1043000045FA4FF0000383F3118807F10807BD4613
:1043100080BD00BF80B582B000AF78607B68002BA5
:1043200005D14EF67C70C0F60000FCF773FB4FF031
:10433000200383F31188FCF70BFA7B681B78012BB1
:1043400009D07B681B78022B05D04EF68870C0F62A
:104350000000FCF75FFB786803F000FA7B684FF021
:1043600001021A70FCF712FA4FF0000383F3118870
:1043700007F10807BD4680BD80B582B000AF786008
:104380000B467B807B68002B05D14EF69870C0F6FB
:104390000000FCF73FFB4FF0200383F31188FCF78C
:1043A000D7F97B681B78032B05D04EF6B070C0F6AA
:1043B0000000FCF72FFB7B68DB687A8802F1FF3294
:1043C00092B2DA62FCF7E2F94FF0000383F311884E
:1043D00007F10807BD4680BD80B582B000AF7860A8
:1043E0000B467B804FF0200383F31188FCF7B0F974
:1043F0007B887868194600F00BF8FCF7C7F94FF096
:10440000000383F3118807F10807BD4680BD00BF94
:1044100080B582B000AF78600B467B80FCF768FA0D
:104420007B68002B05D14EF6C870C0F60000FCF783
:10443000F1FA7B681B78022B05D04EF6E070C0F6CF
:104440000000FCF7E7FA7B684FF003021A707B88E4
:104450007868194603F0B4F907F10807BD4680BD36
:1044600080B582B000AF78600B467B804FF02003B0
:1044700083F31188FCF76CF97B887868194600F0A3
:104480000BF8FCF783F94FF0000383F3118807F171
:104490000807BD4680BD00BF80B582B000AF786020
:1044A0000B467B80FCF724FA7B68002B05D14EF687
:1044B000FC70C0F60000FCF7ADFA7B681B78022B9D
:1044C00005D04FF21400C0F60000FCF7A3FA7B6899
:1044D0004FF004021A707B887868194603F070F96F
:1044E00007F10807BD4680BD80B582B000AF786097
:1044F0004FF0200383F31188FCF72AF9786800F065
:104500000BF8FCF743F94FF0000383F3118807F130
:104510000807BD4680BD00BF80B582B000AF78609F
:10452000FCF7E6F97B68002B05D14FF22C00C0F6B2
:104530000000FCF76FFA7B681B78022B0DD07B68BC
:104540001B78032B09D07B681B78042B05D04FF216
:104550004000C0F60000FCF75DFA7B684FF00202F5
:104560001A70786803F056F907F10807BD4680BD58
:1045700080B582B000AF78600B467B807B681B788B
:10458000022B05D04FF25400C0F60000FCF742FAAF
:104590007B684FF004021A707B887868194603F034
:1045A00051F97B684FF002021A7007F10807BD4607
:1045B00080BD00BF000000000000000000000000FF
:1045C00080B500AF04F0B8FA80BD00BF80B582B0FE
:1045D00000AF78607B684FF001021A707B684FF083
:1045E00000025A607B6803F10C031846FDF7B4FC27
:1045F00007F10807BD4680BD80B582B000AF786086
:1046000039607B68002B02D03B68002B05D14FF24C
:104610007000C0F60000FCF7FDF97B681B78012BE9
:104620000DD07B681B78022B09D07B681B78052B8B
:1046300005D04FF28000C0F60000FCF7EBF94FF018
:10464000200383F31188FCF783F87B683A685A608B
:10465000786804F09BFA7B684FF002021A70FCF74E
:1046600095F84FF0000383F3118807F10807BD4662
:1046700080BD00BF80B582B000AF78607B68002B42
:1046800005D14FF29000C0F60000FCF7C3F97B683B
:104690001B78012B0DD07B681B78022B09D07B681F
:1046A0001B78052B05D04FF29C00C0F60000FCF7EC
:1046B000B1F94FF0200383F31188FCF749F87868CB
:1046C00004F010FB7B684FF001021A70FCF75EF8F3
:1046D0004FF0000383F3118807F10807BD4680BD42
:1046E00080B582B000AF78607B68002B05D14FF2B7
:1046F000AC00C0F60000FCF78DF97B689B6818469B
:1047000007F10807BD4680BD80B58AB004AFF860E8
:104710007A603B600B467B81FB68002B14D07B8961
:10472000002B11D03B68002B0ED07B68002B0BD0E8
:104730007B6A002B05D07B6A002B05D03B6A002BDF
:1047400002D0BB6A002B05D14FF2C000C0F60000BA
:10475000FCF760F9FB681B78022B05D04FF2E000F4
:10476000C0F60000FCF756F94FF0200383F31188E0
:10477000FBF7EEFFFB684FF000029A60FB684FF01A
:1047800003021A707B893A6A00927A6A0192BA6AC5
:104790000292F86819467A683B6804F085FB034684
:1047A0007B617B69B3F1FF3F04D1FB684FF00502E9
:1047B0001A7003E0FB684FF002021A70FBF7E6FF85
:1047C0004FF0000383F311887B69184607F118073F
:1047D000BD4680BD80B588B002AFF8607A603B60AE
:1047E0000B467B81FB68002B0BD07B89002B08D00C
:1047F0003B68002B05D07B68002B02D03B6A002B66
:1048000005D14FF20010C0F60000FCF703F9FB6879
:104810001B78022B05D04FF21C10C0F60000FCF7ED
:10482000F9F84FF0200383F31188FBF791FFFB6841
:104830004FF000029A60FB684FF004021A707B8907
:104840003A6A0092F86819467A683B6804F07EFA82
:1048500003467B617B69B3F1FF3F04D1FB684FF0F6
:1048600005021A7003E0FB684FF002021A70FBF7B2
:104870008DFF4FF0000383F311887B69184607F121
:104880001807BD4680BD00BF80B582B000AF78601C
:104890007B68002B05D14FF23410C0F60000FCF706
:1048A000B9F87B6803F10C031846FDF771FB07F1BB
:1048B0000807BD4680BD00BF80B582B000AF7860FC
:1048C0007B68002B05D14FF24810C0F60000FCF7C2
:1048D000A1F8FDF741FC07F10807BD4680BD00BF08
:1048E00080B500AF03F05CF880BD00BF80B483B03A
:1048F00000AF78607B684FF001021A707B684FF060
:1049000000025A6007F10C07BD4680BC704700BF2B
:1049100080B582B000AF786039607B68002B02D030
:104920003B68002B05D14FF26010C0F60000FCF789
:1049300071F84FF0200383F31188FBF709FF7B68C0
:104940001B78012B09D07B681B78022B05D04FF216
:104950007010C0F60000FCF75DF87B683A685A609A
:10496000786803F02FF87B684FF002021A70FBF7AB
:104970000DFF4FF0000383F3118807F10807BD46D0
:1049800080BD00BF80B582B000AF78607B68002B2F
:1049900005D14FF28010C0F60000FCF73BF84FF055
:1049A000200383F31188FBF7D3FE7B681B78012B70
:1049B00009D07B681B78022B05D04FF28C10C0F613
:1049C0000000FCF727F8786803F0E6F87B684FF002
:1049D00001021A70FBF7DAFE4FF0000383F311882F
:1049E00007F10807BD4680BD80B582B000AF786092
:1049F0007B68002B05D14FF29C10C0F60000FCF73D
:104A000009F84FF0200383F31188FBF7A1FE7B68C0
:104A10001B78022B05D04FF2AC10C0F60000FBF75C
:104A2000F9FF786803F0EAF87B684FF003021A7028
:104A3000FBF7ACFE4FF0000383F3118807F1080782
:104A4000BD4680BD80B582B000AF78607B68002B2A
:104A500005D14FF2BC10C0F60000FBF7DBFF4FF0B2
:104A6000200383F31188FBF773FE7B681B78022B0E
:104A700011D07B681B78032B0DD07B681B78042B2F
:104A800009D07B681B78052B05D04FF2CC10C0F6FF
:104A90000000FBF7BFFF786803F014F97B684FF064
:104AA00002021A70FBF772FE4FF0000383F31188C5
:104AB00007F10807BD4680BD0000000000000000AF
:104AC00080B582B000AF78607B68002B03D07B6834
:104AD0009B680F2B05D94FF2E010C0F60000FBF7E2
:104AE00099FF7B681B689B681A467B689B6822FA63
:104AF00003F27B685B681340184607F10807BD4660
:104B000080BD00BF80B582B000AF786039607B683F
:104B1000002B03D07B689B680F2B05D94FF2F01058
:104B2000C0F60000FBF776FF7B681B683A686FEA07
:104B300002017A68526811407A68926802F11002A4
:104B400001FA02F17A6850683A6810407A6892680F
:104B500000FA02F20A431A6107F10807BD4680BD58
:104B600080B582B000AF786039607B68002B03D0DD
:104B70007B689B680F2B05D94FF20020C0F6000020
:104B8000FBF748FF7B681A687B6859687B689B68FD
:104B900001FA03F3104619463A6803F04FFB07F198
:104BA0000807BD4680BD00BF0000000000000000F7
:104BB00080B500AF03F002F980BD00BF80B483B0C0
:104BC00000AF78607B684FF001021A707B684FF08D
:104BD00000025A6007F10C07BD4680BC704700BF59
:104BE00080B582B000AF786039607B68002B02D05E
:104BF0003B68002B05D14FF22020C0F60000FBF7E8
:104C000009FF4FF0200383F31188FBF7A1FD7B68B8
:104C10001B78012B09D07B681B78022B05D04FF243
:104C20003020C0F60000FBF7F5FE7B683A685A605A
:104C30003B689A887B681A81786803F0CFF87B68B4
:104C40004FF002021A70FBF7A1FD4FF0000383F34F
:104C5000118807F10807BD4680BD00BF80B582B04E
:104C600000AF78607B68002B05D14FF24020C0F682
:104C70000000FBF7CFFE4FF0200383F31188FBF712
:104C800067FD7B681B78012B09D07B681B78022BA2
:104C900005D04FF24C20C0F60000FBF7BBFE786851
:104CA00003F0A6F97B684FF001021A70FBF76EFD66
:104CB0004FF0000383F3118807F10807BD4680BD5C
:104CC00080B582B000AF78600B467B807B68002B9C
:104CD00005D14FF25C20C0F60000FBF79BFE4FF0C1
:104CE000200383F31188FBF733FD7B681B78022BCD
:104CF00005D04FF27020C0F60000FBF78BFE7B68FA
:104D00007A881A817B681B697A8802F1FF3292B235
:104D1000DA62FBF73BFD4FF0000383F3118807F1E4
:104D20000807BD4680BD00BF80B582B000AF786087
:104D300013460A46FA703B807B68002B02D0FB7852
:104D4000032B05D94FF28820C0F60000FBF762FE66
:104D50004FF0200383F31188FBF7FAFC7B681B7884
:104D6000022B05D04FF2A020C0F60000FBF752FE48
:104D7000FA783B88786811461A4603F06BF9FBF71E
:104D800005FD4FF0000383F3118807F10807BD46C6
:104D900080BD00BF80B582B000AF78600B46FB706D
:104DA0007B68002B02D0FB78032B05D94FF28820BB
:104DB000C0F60000FBF72EFE4FF0200383F31188AE
:104DC000FBF7C6FC7B681B78022B05D04FF2B8209E
:104DD000C0F60000FBF71EFEFB787868194603F06A
:104DE00083F9FBF7D3FC4FF0000383F3118807F13D
:104DF0000807BD4680BD00BF0000000000000000A5
:104E000080B584B000AFF860B9607A60FB6803F1E8
:104E100030031846B9687A684FF0FF33FEF70AF896
:104E20000346184607F11007BD4680BD80B584B023
:104E300000AFF860B9607A60FB6803F10C031846B4
:104E4000B9687A684FF0FF33FDF78CFE03461846C9
:104E500007F11007BD4680BD80B582B000AF786015
:104E60000B46FB707B6803F13002FB781046194655
:104E70004FF0FF32FDF744FF0346184607F10807DD
:104E8000BD4680BD80B582B000AF78607B6803F11D
:104E90000C0318464FF0FF31FDF716FE0346184687
:104EA00007F10807BD4680BD80B584B000AFF8604B
:104EB0000B467A60FB72FB6803F13002FB7A104606
:104EC00019467A68FDF71CFF0346184607F11007DC
:104ED000BD4680BD80B582B000AF786039607B6828
:104EE00003F10C0318463968FDF7EEFD034618463A
:104EF00007F10807BD4680BD80B584B000AFF860FB
:104F0000B9607A603B60FB6803F130031846B9680A
:104F10007A683B68FDF78EFF0346184607F11007D5
:104F2000BD4680BD80B584B000AFF860B9607A60DE
:104F30003B60FB6803F10C031846B9687A683B686C
:104F4000FDF710FE0346184607F11007BD4680BD69
:104F500080B500AF04F0FCFC80BD00BF80B586B01A
:104F600002AFF860B9607A60FA684FF2D023C0F6F9
:104F700000031360FB6803F10402FB685A60FB68DE
:104F80004FF001021A72FB6803F10C02FB6803F197
:104F90005403F9680091104619464FF48072BB68BB
:104FA000FDF7EEFCFB6803F13002FB6803F5AA7322
:104FB000F9680091104619464FF480727B68FDF73E
:104FC00045FE07F11007BD4680BD00BF80B582B029
:104FD00000AF786039607B68002B05D14FF2F0207C
:104FE000C0F60000FBF716FD4FF0200383F3118895
:104FF000FBF7AEFB7B681B7A012B09D07B681B7A21
:10500000022B05D04FF2FC20C0F60000FBF702FD9A
:105010007868396804F0CCFC7B684FF002021A72A1
:10502000FBF7B4FB4FF0000383F3118807F1080787
:10503000BD4680BD80B582B000AF78607B68002B34
:1050400005D14FF20C30C0F60000FBF7E3FC4FF047
:10505000200383F31188FBF77BFB7B681B7A012B12
:1050600009D07B681B7A022B05D04FF21830C0F6AE
:105070000000FBF7CFFC786804F0E6FC7B684FF09B
:1050800001021A727B6803F130031846FDF70AFE2D
:105090007B6803F10C031846FDF7A0FCFBF754FFF7
:1050A000FBF774FB4FF0000383F3118807F1080747
:1050B000BD4680BD80B582B000AF78600B46FB7006
:1050C000FBF716FC7B68002B05D14FF22830C0F6A9
:1050D0000000FBF79FFC7B685B69002B07D17B68B6
:1050E00003F1040318464FF00401FDF725FA7B682D
:1050F00003F10C02FB7810461946FDF797FC0346B6
:10510000002B07DA7B6803F1040318464FF0800197
:10511000FDF712FA07F10807BD4680BD80B584B0DF
:1051200000AF7860FBF7E4FB7B68002B05D14FF202
:105130003C30C0F60000FBF76DFC7B6803F13003E8
:105140001846FDF72DFE0346FB60FB68002B07DACF
:105150007B6803F1040318464FF00801FDF7ECF9F2
:10516000FB68184607F11007BD4680BD000000002F
:1051700080B500AF03F0DCFF80BD00BF80B582B01A
:1051800000AF78607B684FF001021A707B684FF0C7
:1051900000025A607B684FF000029A607B6803F15E
:1051A0000C031846FCF7D8FE07F10807BD4680BD82
:1051B00080B582B000AF786039607B68002B02D088
:1051C0003B68002B05D14FF25030C0F60000FBF7D2
:1051D00021FC4FF0200383F31188FBF7B9FA7B68B9
:1051E0001B78012B09D07B681B78022B05D04FF26E
:1051F0006030C0F60000FBF70DFC7B683A685A602F
:10520000786803F0CDFF7B684FF002021A70FBF75D
:10521000BDFA4FF0000383F3118807F10807BD467C
:1052200080BD00BF80B582B000AF78607B68002B86
:1052300005D14FF27030C0F60000FBF7EBFB4FF0EA
:10524000200383F31188FBF783FA7B681B78012B1B
:1052500009D07B681B78022B05D04FF27C30C0F65A
:105260000000FBF7D7FB786804F080F8786804F05A
:1052700035F87B684FF001021A70FBF787FA4FF0A0
:10528000000383F3118807F10807BD4680BD00BF06
:1052900080B582B000AF78607B68002B05D14FF2FB
:1052A0008C30C0F60000FBF7B5FB4FF0200383F312
:1052B0001188FBF74DFA7B681B78022B05D04FF263
:1052C0009C30C0F60000FBF7A5FB786804F03AF8C4
:1052D000FBF75CFA4FF0000383F3118807F108072E
:1052E000BD4680BD80B582B000AF78607B68002B82
:1052F00005D14FF2AC30C0F60000FBF78BFB4FF04E
:10530000200383F31188FBF723FA7B681B78022BB9
:1053100005D04FF2BC30C0F60000FBF77BFB78688D
:1053200004F024F8FBF732FA4FF0000383F31188FE
:1053300007F10807BD4680BD80B582B000AF786038
:1053400039607B68002B02D03B68002B05D14FF2FF
:10535000D030C0F60000FBF75DFB4FF0200383F375
:105360001188FBF7F5F97B681B78022B05D04FF20B
:10537000E430C0F60000FBF74DFB7B684FF0030202
:105380001A707868396804F005F8FBF7FFF94FF0F8
:10539000000383F3118807F10807BD4680BD00BFF5
:1053A00080B584B000AFF860B9607A603B60FB689C
:1053B000002B08D0BB68002B05D03B68002B02D027
:1053C0007B68002B05D14FF2FC30C0F60000FBF7E4
:1053D00021FB4FF0200383F31188FBF7B9F9FB6839
:1053E0001B78022B05D04FF21440C0F60000FBF7EB
:1053F00011FBFB684FF003021A70F868B9687A680D
:105400003B6804F00BF8FBF7C1F94FF0000383F39E
:10541000118807F11007BD4680BD00BF80B584B07C
:1054200000AFF860B9607A60FB68002B05D0BB68FC
:10543000002B02D07B68002B05D14FF22C40C0F628
:105440000000FBF7E7FA4FF0200383F31188FBF726
:105450007FF9FB681B78022B05D04FF24040C0F665
:105460000000FBF7D7FAFB684FF003021A70F868E8
:10547000B9687A6804F016F8FBF788F94FF0000372
:1054800083F3118807F11007BD4680BD80B584B055
:1054900000AFF860B9607A60FB68002B05D0BB688C
:1054A000002B02D07B68002B05D14FF25440C0F690
:1054B0000000FBF7AFFA4FF0200383F31188FBF7EE
:1054C00047F9FB681B78022B05D04FF26840C0F605
:1054D0000000FBF79FFAFB684FF003021A70F868B0
:1054E000B9687A6804F022F8FBF750F94FF000032E
:1054F00083F3118807F11007BD4680BD80B582B0E7
:1055000000AF786039607B68002B02D03B68002BCD
:1055100005D14FF28040C0F60000FBF77BFA4FF058
:10552000200383F31188FBF713F97B681B78022BA8
:1055300005D04FF29440C0F60000FBF76BFA7B6891
:105540005B681B68002B05D04FF2A440C0F600003A
:10555000FBF760FA7B684FF003021A7078683968CD
:1055600003F018FF7B689B68002B05D04FF2B44016
:10557000C0F60000FBF74EFA41F67413C2F20003C6
:105580009A697B689A604FF00200FBF7E5FBFBF736
:10559000FDF84FF0000383F3118807F10807BD46BB
:1055A00080BD00BF80B584B000AFF860B9607A609C
:1055B0003B60FB68002B08D0BB68002B05D03B6824
:1055C000002B02D07B68002B05D14FF2C440C0F6FF
:1055D0000000FBF71FFA4FF0200383F31188FBF75D
:1055E000B7F8FB681B78022B05D04FF2D440C0F609
:1055F0000000FBF70FFAFB685B681B68002B05D007
:105600004FF2E840C0F60000FBF704FAFB684FF0E9
:1056100003021A70F868B9687A683B6803F0FEFE06
:10562000FB689B68002B05D04FF2B440C0F6000029
:10563000FBF7F0F941F67413C2F200039A69FB68B4
:105640009A604FF00200FBF787FBFBF79FF84FF0E3
:10565000000383F3118807F11007BD4680BD00BF2A
:1056600080B584B000AFF860B9607A60FB68002B49
:1056700005D0BB68002B02D07B68002B05D14FF210
:10568000FC40C0F60000FBF7C5F94FF0200383F3A0
:105690001188FBF75DF8FB681B78022B05D04FF2F1
:1056A0000850C0F60000FBF7B5F9FB685B681B68A3
:1056B000002B05D04FF21850C0F60000FBF7AAF9F6
:1056C000FB684FF003021A70F868B9687A6803F053
:1056D000E9FEFB689B68002B05D04FF2B440C0F692
:1056E0000000FBF797F941F67413C2F200039A69C0
:1056F000FB689A604FF00200FBF72EFBFBF746F8C1
:105700004FF0000383F3118807F11007BD4680BDF9
:1057100080B584B000AFF860B9607A60FB68002B98
:1057200005D0BB68002B02D07B68002B05D14FF25F
:105730002850C0F60000FBF76DF94FF0200383F30B
:105740001188FBF705F8FB681B78022B05D04FF298
:105750003850C0F60000FBF75DF9FB685B681B681A
:10576000002B05D04FF24C50C0F60000FBF752F969
:10577000FB684FF003021A70F868B9687A6803F0A2
:10578000D5FEFB689B68002B05D04FF2B440C0F6F5
:105790000000FBF73FF941F67413C2F200039A6967
:1057A000FB689A604FF00200FBF7D6FAFAF7EEFFBB
:1057B0004FF0000383F3118807F11007BD4680BD49
:1057C00080B582B000AF78607B68002B05D14FF2C6
:1057D0006050C0F60000FBF71DF97B6803F10C0375
:1057E0001846FCF7D5FB07F10807BD4680BD00BF92
:1057F00080B582B000AF78607B68002B05D14FF296
:105800007450C0F60000FBF705F9FCF7A5FC07F1A2
:105810000807BD4680BD00BF00000000000000007A
:1058200080B582B000AFFBF70BF84FF00003C4F275
:1058300002031B6803F00F037B604FF00003C4F208
:1058400002034FF00F025A6040F6F443C2F2000325
:105850001B68002B0CD040F6F443C2F200031A6818
:1058600040F6F443C2F200035B681846796890473B
:10587000FBF712F8FAF728FD07F10807BD4680BDCF
:1058800080B582B000AFFAF7DBFF4FF00003C4F23F
:1058900002031B684FEA131303F00F037B604FF002
:1058A0000003C4F202034FF0F0025A6040F6F443E2
:1058B000C2F200039B68002B0CD040F6F443C2F206
:1058C00000039A6840F6F443C2F20003DB6818460E
:1058D00079689047FAF7E0FFFAF7F6FC07F1080756
:1058E000BD4680BD80B582B000AFFAF7A9FF4FF08A
:1058F0000003C4F202031B684FEA132303F00F03F3
:105900007B604FF00003C4F202034FF470625A60F0
:1059100040F6F443C2F200031B69002B0CD040F6A2
:10592000F443C2F200031A6940F6F443C2F20003E2
:105930005B69184679689047FAF7AEFFFAF7C4FC3E
:1059400007F10807BD4680BD80B582B000AFFAF709
:1059500077FF4FF00003C4F202031B684FEA1333D2
:1059600003F00F037B604FF00003C4F202034FF417
:1059700070425A6040F6F443C2F200039B69002B68
:105980000CD040F6F443C2F200039A6940F6F443A7
:10599000C2F20003DB69184679689047FAF77CFF8A
:1059A000FAF792FC07F10807BD4680BD80B582B0CA
:1059B00000AFFAF745FF4FF00003C4F202031B6883
:1059C0004FEA134303F00F037B604FF00003C4F270
:1059D00002034FF470225A6040F6F443C2F200030F
:1059E0001B6A002B0CD040F6F443C2F200031A6A83
:1059F00040F6F443C2F200035B6A184679689047A8
:105A0000FAF74AFFFAF760FC07F10807BD4680BDC8
:105A100080B582B000AFFAF713FF4FF00003C4F275
:105A200002031B684FEA135303F00F037B604FF030
:105A30000003C4F202034FF470025A6040F6F443CC
:105A4000C2F200039B6A002B0CD040F6F443C2F272
:105A500000039A6A40F6F443C2F20003DB6A184678
:105A600079689047FAF718FFFAF72EFC07F1080754
:105A7000BD4680BD80B582B000AFFAF7E1FE4FF0C1
:105A80000003C4F202031B684FEA136303F00F0321
:105A90007B604FF00003C4F202034FF070625A6063
:105AA00040F6F443C2F200031B6B002B0CD040F60F
:105AB000F443C2F200031A6B40F6F443C2F200034F
:105AC0005B6B184679689047FAF7E6FEFAF7FCFB3D
:105AD00007F10807BD4680BD80B483B000AF40F633
