:020000040801F1
:1004400080B483B000AF78604FF40063C4F201035E
:100450004FF40062C4F20102D26882F00202DA6054
:1004600007F10C07BD4680BC704700BF80B582B065
:1004700000AF786040F20850C0F60100FAF7D8FAF1
:100480007B681846FAF7F0FA40F21050C0F6010007
:10049000FAF7CEFA07F10807BD4680BD80B584B0F3
:1004A00000AF78604FF00003FB6040F21450C0F6DC
:1004B0000100FAF7BDFA43F24040C2F2000040F2F8
:1004C0000051C0F60101F2F7B3FF43F24040C2F21F
:1004D00000004FF4FA71F3F70DF840F22850C0F61F
:1004E0000100FAF7A5FAFB6803F10103FB60FB6862
:1004F0001846FFF7BBFF41F28830F0F7C3FCF2E784
:100500001027000041040108415050313A200000FA
:100510000D0A000048656C6C6F2066726F6D20419B
:100520005050310D0A00000047505444332073747A
:0805300061727465640D0A009C
:0400000508010440AA
:00000001FF
