:020000040801F1
:1000000080B584B000AF786043F2A033C2F2000341
:10001000DB68FB6040F2C000C0F60100FAF708FDA3
:100020007B681846FAF720FD40F2C800C0F60100D0
:10003000FAF7FEFCF868FAF717FD40F2CC00C0F6BC
:100040000100FAF7F5FC07F11007BD4680BD00BFBF
:1000500080B584B000AF78604FF0FF33FB6040F2B2
:10006000D000C0F60100FAF7E3FC4FF40063C4F2DD
:1000700001034FF40062C4F20102D26882F004026C
:10008000DA60FB6803F1FF33FB6040F60C03C2F259
:1000900000031B6803F1010240F60C03C2F20003E7
:1000A0001A60FB681846FFF7ABFF4FF47A70F0F761
:1000B000E9FEDAE700000000000000000000000098
:1000C000415050323A200000202D20000D0A00003F
:1000D00048656C6C6F2066726F6D20415050320D18
:0400E0000A00000012
:0C00E80041534446313233340000000024
:0400000508010000EE
:00000001FF
