:020000040801F1
:1020000080B584B000AF786043F2A033C2F2000321
:10201000DB68FB6042F2A000C0F60100F8F708FDA3
:102020007B681846F8F720FD42F2A800C0F60100D0
:10203000F8F7FEFCF868F8F717FD42F2AC00C0F6BE
:102040000100F8F7F5FC07F11007BD4680BD00BFA1
:1020500080B584B000AF78604FF0FF33FB6042F290
:10206000B000C0F60100F8F7E3FC4FF40063C4F2DF
:1020700001034FF40062C4F20102D26882F0080248
:10208000DA60FB6803F1FF33FB60FB681846FFF77B
:10209000B7FF4FF47A70EEF7F5FEE6E700000000B8
:1020A000415050333A200000202D20000D0A00003E
:1020B00048656C6C6F2066726F6D20415050330D17
:0420C0000A00000012
:0400000508012000CE
:00000001FF
