:020000040801F1
:1009300080B584B000AF786041F66413C2F2000362
:10094000DB68FB6040F6C010C0F60100FBF720F842
:100950007B681846FBF738F840F6C810C0F601006F
:10096000FBF716F8F868FBF72FF840F6CC10C0F646
:100970000100FBF70DF807F11007BD4680BD00BF71
:1009800080B584B000AF78604FF0FF33FB604FF468
:100990000063C4F201034FF40062C4F20102D268A2
:1009A00082F00802DA60FB6803F1FF33FB604FF46A
:1009B0007A70F0F725FDEAE7000000000000000073
:1009C000415050333A200000202D20000D0A000035
:0400000508010930B5
:00000001FF
